{
  "_format": "hh-sol-artifact-1",
  "contractName": "Whatsapp",
  "sourceName": "contracts/Whatsapp.sol",
  "abi": [
    {
      "inputs": [
        {
          "internalType": "address",
          "name": "from",
          "type": "address"
        },
        {
          "internalType": "uint256",
          "name": "msgNo",
          "type": "uint256"
        }
      ],
      "name": "allMessages",
      "outputs": [
        {
          "components": [
            {
              "internalType": "address",
              "name": "to",
              "type": "address"
            },
            {
              "internalType": "string",
              "name": "_msg",
              "type": "string"
            },
            {
              "internalType": "uint256",
              "name": "timestamp",
              "type": "uint256"
            }
          ],
          "internalType": "struct Whatsapp.Message",
          "name": "",
          "type": "tuple"
        }
      ],
      "stateMutability": "view",
      "type": "function"
    },
    {
      "inputs": [
        {
          "internalType": "address",
          "name": "",
          "type": "address"
        },
        {
          "internalType": "address",
          "name": "",
          "type": "address"
        }
      ],
      "name": "count",
      "outputs": [
        {
          "internalType": "uint256",
          "name": "",
          "type": "uint256"
        }
      ],
      "stateMutability": "view",
      "type": "function"
    },
    {
      "inputs": [
        {
          "internalType": "address",
          "name": "",
          "type": "address"
        },
        {
          "internalType": "uint256",
          "name": "",
          "type": "uint256"
        }
      ],
      "name": "message",
      "outputs": [
        {
          "internalType": "address",
          "name": "to",
          "type": "address"
        },
        {
          "internalType": "string",
          "name": "_msg",
          "type": "string"
        },
        {
          "internalType": "uint256",
          "name": "timestamp",
          "type": "uint256"
        }
      ],
      "stateMutability": "view",
      "type": "function"
    },
    {
      "inputs": [
        {
          "internalType": "address",
          "name": "to",
          "type": "address"
        },
        {
          "internalType": "string",
          "name": "_msg",
          "type": "string"
        }
      ],
      "name": "send",
      "outputs": [],
      "stateMutability": "nonpayable",
      "type": "function"
    },
    {
      "inputs": [
        {
          "internalType": "address",
          "name": "from",
          "type": "address"
        },
        {
          "internalType": "address",
          "name": "to",
          "type": "address"
        }
      ],
      "name": "totalMessageTo",
      "outputs": [
        {
          "internalType": "uint256",
          "name": "",
          "type": "uint256"
        }
      ],
      "stateMutability": "view",
      "type": "function"
    }
  ],
  "bytecode": "0x608060405234801561001057600080fd5b50610e79806100206000396000f3fe608060405234801561001057600080fd5b50600436106100575760003560e01c80631b4ab8a21461005c5780634ee54ed11461008c57806383933ed6146100be57806399142b5f146100ee578063f625fce01461010a575b600080fd5b610076600480360381019061007191906106c6565b61013a565b604051610083919061071f565b60405180910390f35b6100a660048036038101906100a19190610766565b61015f565b6040516100b593929190610845565b60405180910390f35b6100d860048036038101906100d391906106c6565b61023e565b6040516100e5919061071f565b60405180910390f35b610108600480360381019061010391906109b8565b6102c5565b005b610124600480360381019061011f9190610766565b6104c1565b6040516101319190610acc565b60405180910390f35b6001602052816000526040600020602052806000526040600020600091509150505481565b6000602052816000526040600020602052806000526040600020600091509150508060000160009054906101000a900473ffffffffffffffffffffffffffffffffffffffff16908060010180546101b590610b1d565b80601f01602080910402602001604051908101604052809291908181526020018280546101e190610b1d565b801561022e5780601f106102035761010080835404028352916020019161022e565b820191906000526020600020905b81548152906001019060200180831161021157829003601f168201915b5050505050908060020154905083565b6000600160008473ffffffffffffffffffffffffffffffffffffffff1673ffffffffffffffffffffffffffffffffffffffff16815260200190815260200160002060008373ffffffffffffffffffffffffffffffffffffffff1673ffffffffffffffffffffffffffffffffffffffff16815260200190815260200160002054905092915050565b60405180606001604052808373ffffffffffffffffffffffffffffffffffffffff168152602001828152602001428152506000803373ffffffffffffffffffffffffffffffffffffffff1673ffffffffffffffffffffffffffffffffffffffff1681526020019081526020016000206000600160003373ffffffffffffffffffffffffffffffffffffffff1673ffffffffffffffffffffffffffffffffffffffff16815260200190815260200160002060008673ffffffffffffffffffffffffffffffffffffffff1673ffffffffffffffffffffffffffffffffffffffff16815260200190815260200160002054815260200190815260200160002060008201518160000160006101000a81548173ffffffffffffffffffffffffffffffffffffffff021916908373ffffffffffffffffffffffffffffffffffffffff160217905550602082015181600101908161041d9190610cfa565b5060408201518160020155905050600160003373ffffffffffffffffffffffffffffffffffffffff1673ffffffffffffffffffffffffffffffffffffffff16815260200190815260200160002060008373ffffffffffffffffffffffffffffffffffffffff1673ffffffffffffffffffffffffffffffffffffffff16815260200190815260200160002060008154809291906104b890610dfb565b91905055505050565b6104c961061d565b6000808473ffffffffffffffffffffffffffffffffffffffff1673ffffffffffffffffffffffffffffffffffffffff16815260200190815260200160002060008381526020019081526020016000206040518060600160405290816000820160009054906101000a900473ffffffffffffffffffffffffffffffffffffffff1673ffffffffffffffffffffffffffffffffffffffff1673ffffffffffffffffffffffffffffffffffffffff16815260200160018201805461058990610b1d565b80601f01602080910402602001604051908101604052809291908181526020018280546105b590610b1d565b80156106025780601f106105d757610100808354040283529160200191610602565b820191906000526020600020905b8154815290600101906020018083116105e557829003601f168201915b50505050508152602001600282015481525050905092915050565b6040518060600160405280600073ffffffffffffffffffffffffffffffffffffffff16815260200160608152602001600081525090565b6000604051905090565b600080fd5b600080fd5b600073ffffffffffffffffffffffffffffffffffffffff82169050919050565b600061069382610668565b9050919050565b6106a381610688565b81146106ae57600080fd5b50565b6000813590506106c08161069a565b92915050565b600080604083850312156106dd576106dc61065e565b5b60006106eb858286016106b1565b92505060206106fc858286016106b1565b9150509250929050565b6000819050919050565b61071981610706565b82525050565b60006020820190506107346000830184610710565b92915050565b61074381610706565b811461074e57600080fd5b50565b6000813590506107608161073a565b92915050565b6000806040838503121561077d5761077c61065e565b5b600061078b858286016106b1565b925050602061079c85828601610751565b9150509250929050565b6107af81610688565b82525050565b600081519050919050565b600082825260208201905092915050565b60005b838110156107ef5780820151818401526020810190506107d4565b60008484015250505050565b6000601f19601f8301169050919050565b6000610817826107b5565b61082181856107c0565b93506108318185602086016107d1565b61083a816107fb565b840191505092915050565b600060608201905061085a60008301866107a6565b818103602083015261086c818561080c565b905061087b6040830184610710565b949350505050565b600080fd5b600080fd5b7f4e487b7100000000000000000000000000000000000000000000000000000000600052604160045260246000fd5b6108c5826107fb565b810181811067ffffffffffffffff821117156108e4576108e361088d565b5b80604052505050565b60006108f7610654565b905061090382826108bc565b919050565b600067ffffffffffffffff8211156109235761092261088d565b5b61092c826107fb565b9050602081019050919050565b82818337600083830152505050565b600061095b61095684610908565b6108ed565b90508281526020810184848401111561097757610976610888565b5b610982848285610939565b509392505050565b600082601f83011261099f5761099e610883565b5b81356109af848260208601610948565b91505092915050565b600080604083850312156109cf576109ce61065e565b5b60006109dd858286016106b1565b925050602083013567ffffffffffffffff8111156109fe576109fd610663565b5b610a0a8582860161098a565b9150509250929050565b610a1d81610688565b82525050565b600082825260208201905092915050565b6000610a3f826107b5565b610a498185610a23565b9350610a598185602086016107d1565b610a62816107fb565b840191505092915050565b610a7681610706565b82525050565b6000606083016000830151610a946000860182610a14565b5060208301518482036020860152610aac8282610a34565b9150506040830151610ac16040860182610a6d565b508091505092915050565b60006020820190508181036000830152610ae68184610a7c565b905092915050565b7f4e487b7100000000000000000000000000000000000000000000000000000000600052602260045260246000fd5b60006002820490506001821680610b3557607f821691505b602082108103610b4857610b47610aee565b5b50919050565b60008190508160005260206000209050919050565b60006020601f8301049050919050565b600082821b905092915050565b600060088302610bb07fffffffffffffffffffffffffffffffffffffffffffffffffffffffffffffffff82610b73565b610bba8683610b73565b95508019841693508086168417925050509392505050565b6000819050919050565b6000610bf7610bf2610bed84610706565b610bd2565b610706565b9050919050565b6000819050919050565b610c1183610bdc565b610c25610c1d82610bfe565b848454610b80565b825550505050565b600090565b610c3a610c2d565b610c45818484610c08565b505050565b5b81811015610c6957610c5e600082610c32565b600181019050610c4b565b5050565b601f821115610cae57610c7f81610b4e565b610c8884610b63565b81016020851015610c97578190505b610cab610ca385610b63565b830182610c4a565b50505b505050565b600082821c905092915050565b6000610cd160001984600802610cb3565b1980831691505092915050565b6000610cea8383610cc0565b9150826002028217905092915050565b610d03826107b5565b67ffffffffffffffff811115610d1c57610d1b61088d565b5b610d268254610b1d565b610d31828285610c6d565b600060209050601f831160018114610d645760008415610d52578287015190505b610d5c8582610cde565b865550610dc4565b601f198416610d7286610b4e565b60005b82811015610d9a57848901518255600182019150602085019450602081019050610d75565b86831015610db75784890151610db3601f891682610cc0565b8355505b6001600288020188555050505b505050505050565b7f4e487b7100000000000000000000000000000000000000000000000000000000600052601160045260246000fd5b6000610e0682610706565b91507fffffffffffffffffffffffffffffffffffffffffffffffffffffffffffffffff8203610e3857610e37610dcc565b5b60018201905091905056fea26469706673582212205985a46ff559679fea5e70527640e3d176518420353d0d54fdb471754da2eda964736f6c63430008120033",
  "linkReferences": {},
  "deployedLinkReferences": {}
}